:060000000A128A110C280F
:10000800FE00030EF5000A08F6000A128A15902968
:100018000A128A110F28831603130A128A1503205D
:100028000A128A11CF000A128A1504200A128A11AC
:10003800D0000A128A1505200A128A11D100C901B6
:10004800CA01CB01CC01CD01CE01F701F801F901BC
:10005800FA0183010A128A15252D831203134B080E
:100068008039D5004B08D0005007DB00CA1F3D2857
:100078003E283F285B145B0803194328442853286B
:100088005B0A031D4828492851280030CB0000305E
:10009800CA000030C9000030C800CA175B28003009
:1000A800CB000030CA000030C9000030C8004F083B
:1000B8008039D0005008D5064F08D0005007DA0024
:1000C800CE1F6728682869285A145A0803196D280A
:1000D8006E287D285A0A031D722873287B28003051
:1000E800CF000030CE000030CD000030CC00CE175D
:1000F80085280030CF000030CE000030CD00003021
:10010800CC005A08031989288A288F285B08031D00
:100118008E288F2898280030CB000030CA00003085
:10012800C9000030C800752B4808A0004E080A1600
:100138008A11F9240A128A11831203132108E10093
:100148002008E0006008D000D101D201D301530893
:10015800D9005208D8005108D7005008D6006108C5
:10016800D000D101D201D3015308DF005208DE00CC
:100178005108DD005008DC004908A0004D080A16A7
:100188008A11F9240A128A11831203132108E10043
:100198002008E0006008D000D101D201D301500846
:1001A800D607510803110318013E0319DC28D707A5
:1001B800520803110318013E0319E328D80753080E
:1001C80003110318013E0319EA28D9076108D00072
:1001D800D101D201D3015008DC07510803110318DB
:1001E800013E0319F828DD07520803110318013EE0
:1001F8000319FF28DE07530803110318013E0319EA
:100208000629DF074A08A0004C080A168A11F924B3
:100218000A128A11831203132108E1002008E00062
:100228006008D000D101D201D3015008D607510887
:1002380003110318013E03192229D7075208031195
:100248000318013E03192929D80753080311031875
:10025800013E03193029D9076108D000D101D20124
:10026800D3015008DC07510803110318013E031994
:100278003E29DD07520803110318013E03194529D9
:10028800DE07530803110318013E03194C29DF0741
:100298000830D0000310D60DD70DD80DD90DD00BCE
:1002A8004E294908A0004C080A168A11F9240A1296
:1002B8008A11831203132108E1002008E000600876
:1002C800D0006108D100D201D3015008D6075108E7
:1002D80003110318013E03197229D70752080311A5
:1002E8000318013E03197929D80753080311031885
:1002F800013E03198029D9074808A0004D080A16AD
:100308008A11F9240A128A11831203132108E100C1
:100318002008E0006008D0006108D100D201D301B4
:100328005008D607510803110318013E03199D29E7
:10033800D707520803110318013E0319A429D80747
:10034800530803110318013E0319AB29D9070830D4
:10035800D0000310D60DD70DD80DD90DD00BAD296F
:100368004808A0004C080A168A11F9240A128A11B2
:10037800831203132108E1002008E0006008D00080
:100388006108D100D201D3015008D60751080311E2
:100398000318013E0319D129D7075208031103187E
:1003A800013E0319D829D807530803110318013E41
:1003B8000319DF29D9074908A0004E080A168A112F
:1003C800F9240A128A11831203132108E100200874
:1003D800E0006008D0006108D100D201D3015008C4
:1003E800DC07510803110318013E0319FC29DD0736
:1003F800520803110318013E0319032ADE075308A4
:1004080003110318013E03190A2ADF074A08A0004E
:100418004D080A168A11F9240A128A118312031345
:100428002108E1002008E0006008D0006108D10040
:10043800D201D3015008DC07510803110318013E0B
:100448000319272ADD07520803110318013E03196F
:100458002E2ADE07530803110318013E0319352A13
:10046800DF074A08A0004E080A168A11F9240A1262
:100478008A11831203132108E1002008E0006008B4
:10048800D0006108D100D201D30108300310D00D8B
:10049800D10DD20DD30DFF3E031D4A2A5008DC07AB
:1004A800510803110318013E03195B2ADD0752089E
:1004B80003110318013E0319622ADE0753080311CA
:1004C8000318013E0319692ADF075608D0005708A8
:1004D800D1005808D2005908D30018300310D30CA3
:1004E800D20CD10CD00CFF3E031D722A5008DC0739
:1004F800510803110318013E0319832ADD07520826
:1005080003110318013E03198A2ADE075308031151
:100518000318013E0319912ADF070830D0000310A1
:10052800D60DD70DD80DD90DD00B932A5B085A07D5
:10053800D000D101D10D5008823EE00051080318C7
:10054800013EFF3EE100C52A0130D0000310DC0D5A
:10055800DD0DDE0DDF0DD00BAA2AD91FB42AB52A6E
:10056800B62A5C140130D0000310D60DD70DD80D73
:10057800D90DD00BB82AFF30E0070318E10AFF3085
:10058800E107DE1FC82AC92AA82ADA01D91FCD2AFD
:10059800CE2AEA2AFF305605D000FF305705D10091
:1005A800FF305805D2007F305905D3005308520454
:1005B800510450040319E12AE22AE52ADA01DA0A89
:1005C800EA2A5C1CE82AE92AEA2AE22A5A080319D4
:1005D800EE2AEF2A202B0130DC0700300318013007
:1005E800DD07003003180130DE0700300318013042
:1005F800DF075F1C002B012B202B5C08D0005D0857
:10060800D1005E08D2005F08D3000130D400530D3A
:10061800D30CD20CD10CD00CD40B0B2B5308DF000D
:100628005208DE005108DD005008DC000130E00708
:100638000318E10A0030E1076108803AFF008030C2
:100648007F02031D292BFF306002031C2C2B2D2B4E
:10065800382B7F3083120313DF008030DE00003038
:10066800DD000030DC00692B831203136108803A37
:10067800FF0080307F02031D432B01306002031806
:10068800462B472B532B003083120313DF00003017
:10069800DE000030DD000030DC00D501692B83125C
:1006A80003136008DB00FF30DC05FF30DD057F3019
:1006B800DE050030DF055B1C622B632B642BDE1725
:1006C8005B08D0000310500CDF005508D00050081C
:1006D800DF045F08CB005E08CA005D08C9005C083B
:1006E800C80008008312031365088039EA0065080A
:1006F80083160313A000200783120313EC00E41FE2
:10070800862B872B882B6C146C0803198C2B8D2B4C
:100718009D2B6C0A031D912B922B9A2B0030E50020
:100728000030E4000030E3000030E200E417E501A7
:10073800A52B0030E5000030E4000030E300003075
:10074800E20069088039EB006B086A060319AD2BD3
:10075800AE2BAF2B6A17690883160313A000200776
:1007680083120313EB00E81FBA2BBB2BBC2B6B14B3
:100778006B080319C02BC12BD12B6B0A031DC52B8A
:10078800C62BCE2B0030E9000030E8000030E7002F
:100798000030E600E817E901D92B0030E900003005
:1007A800E8000030E7000030E6006C086B02031830
:1007B800DE2BDF2B092C6A1FE22BE32BEB2B80307F
:1007C80083160313A000200883120313EA066C089B
:1007D800ED006B08EC006D08EB006208ED006608A0
:1007E800E2006D08E6006308ED006708E3006D08A5
:1007F800E7006408ED006808E4006D08E800650893
:10080800ED006908E5006D08E900ED016B08831645
:100818000313A000A1012108A300831203136C088D
:10082800831603132002A200031CA3032308803AA3
:10083800FF0080307F02031D232C1A302202031C84
:10084800262C272C6A2C831203136508640463047E
:100858006204031D302C322C0130332C0030ED00A3
:100868000030E5000030E4000030E3000030E20032
:100878006B08EC00722C6D1C422C432C4E2C6D081E
:1008880083160313A0000310200C013883120313EE
:10089800ED00502C0310ED0C621C532C542C552CDD
:1008A800ED17013083160313A00083120313650D9F
:1008B800E50CE40CE30CE20C83160313A00B592C93
:1008C8000130A000200883120313EC0783120313DE
:1008D8006B086C02031C712C722C3F2C6A1B752C44
:1008E800762CCB2C6C08031D7A2C7B2C842C0030A6
:1008F800E5000030E4000030E3000030E2005F2E45
:100908006608E207670803110318013E03198D2CD6
:10091800E307680803110318013E0319942CE40740
:10092800690803110318013E03199B2CE507651C90
:100938009E2C9F2CBF2D6D1CA22CA32CAE2C6D08B9
:1009480083160313A0000310200C0138831203132D
:10095800ED00B02C0310ED0C621CB32CB42CB52C9C
:10096800ED17013083160313A00083120313650DDE
:10097800E50CE40CE30CE20C83160313A00BB92C72
:100988000130A000200883120313EC07BF2D65086F
:10099800803AFF006908803A7F02031DDD2C680851
:1009A8006402031DDD2C67086302031DDD2C660845
:1009B80062020318E02CE12C712DFF30831603131B
:1009C800A000FF30A100FF30A200FF30A300831277
:1009D8000313660883160313A4008312031367081E
:1009E80083160313A50083120313680883160313E1
:1009F800A60083120313690883160313A700831242
:100A08000313620883160313A402831203136308F3
:100A1800031C630F102D132D83160313A5028312D5
:100A280003136408031C640F1A2D1D2D831603136A
:100A3800A602831203136508031C650F242D272DB6
:100A480083160313A70283120313831603132408C0
:100A5800A00725080318250F322D332DA1072608D6
:100A68000318260F382D392DA20727080318270A3F
:100A7800A307230883120313E50083160313220830
:100A880083120313E400831603132108831203134C
:100A9800E30083160313200883120313E200803057
:100AA80083160313A000200883120313EA06ED0936
:100AB800ED0A6D08031D612D622D7F2D0130E207BF
:100AC800003003180130E307003003180130E40751
:100AD800003003180130E5077F2D6608E202670839
:100AE800031C670FE3026808031C680FE402690827
:100AF800031C690FE5026508640463046204031DAE
:100B0800862D872DBB2D6D08031D8B2D8C2DBB2DA0
:100B18000030E5000030E4000030E3000030E2007F
:100B28005F2E013083160313A000031083120313F2
:100B3800E20DE30DE40DE50D83160313A00B992DCB
:100B480083120313ED1FA92DAA2DAB2D62146D1C62
:100B5800AE2DAF2DB22D0314ED0DB42D0310ED0DF8
:100B68006C080319B82DB92DBB2D0130EC02E41F18
:100B7800BE2DBF2D952DEB01ED1FC32DC42DD22DFC
:100B88006D087F390319C92DCA2DCD2DEB01EB0A4C
:100B9800D22D621CD02DD12DD22DCA2D6B08031950
:100BA800D62DD72D2B2E0130E20700300318013047
:100BB800E307003003180130E40700300318013060
:100BC800E507651CE82DE92D2B2E62088316031313
:100BD800A00083120313630883160313A100831272
:100BE8000313640883160313A20083120313650812
:100BF80083160313A3000130A400230DA30CA20C39
:100C0800A10CA00CA40B012E230883120313E500EA
:100C180083160313220883120313E40083160313B5
:100C2800210883120313E300831603132008831299
:100C38000313E2006C0A0319222E232E2B2E0130F7
:100C480083160313A000200883120313EC076C0A11
:100C580003192F2E302E352E6C08031D342E352EF9
:100C6800432E0030E5000030E4000030E30000309F
:100C7800E2006C08031D412E422E432EEA016C1C33
:100C8800462E472E492EE417512E7F308316031324
:100C9800A000200883120313E4056C0883160313CD
:100CA800A0000310200C83120313E500EA1F5D2E39
:100CB8005E2E5F2EE517080083120313C9002F303C
:100CC800C400272F25304A0603196B2E6C2E762E6A
:100CD800490884004A08831380000130C100410894
:100CE800C907272FC5010130AE07FF302E07840042
:100CF8000A168A110A200A128A11CA00C100C20102
:100D08004208003A0319892E272F4108003A03198F
:100D1800372F643A0319942E0D3A0319942E272F6E
:100D28004408840083130008C700840A0008C80028
:100D38000230C1004108C407C81FA32EA42EAD2E3F
:100D48000330C1004108C504C709C809C70A031907
:100D5800C80ACA01CA0A4A08C1004107013E8400FC
:100D68000A168A110A200A128A11C2000A168A1162
:100D78000A200A128A11C30043084802031DC62E1E
:100D8800420847020318C92ECA2ECB2ED52E013091
:100D9800C1004108CA0705304A06031DD42ED52EC6
:100DA800AF2E450803390319DA2EDB2EE42E490845
:100DB80084002D30831380000130C1004108C90729
:100DC8004A08C6001E2F0A30A8000030A9004608AD
:100DD800C1004107013E84000A168A110A200A123E
:100DE8008A11A0000A168A110A200A128A11A10083
:100DF8004808A3004708A2000A168A11D7260A1233
:100E08008A11831203132108AB002008AA000A16CE
:100E18008A1155260A128A11831203132808303EB4
:100E2800CA00490884004A08831380000130C100C1
:100E38004108C907FF30C1004108C607460A031D1B
:100E4800262F272FE72E0130AE07FF302E0784000C
:100E58000A168A110A200A128A11CA004A08031DB2
:100E6800362F372F662E4908840083138001080027
:100E780083120313A80028080319432F442F582F5F
:100E8800A31F472F482F582F2009AA002109AB007C
:100E98002209AC002309AD00AA0A0319AB0A0319F9
:100EA800AC0A0319AD0A602F2308AD002208AC0074
:100EB8002108AB002008AA002308220421042004EA
:100EC800031D672F682F712F0030A3000030A20088
:100ED8000030A1000030A000F52F9630A900812F26
:100EE8000130A4002408A90701300310AD0CAC0C94
:100EF800AB0CAA0CFF3E031D792FFE302D05031DF8
:100F0800862F872F742FA32F0130A4002408A90748
:100F18000130AA07003003180130AB07003003186E
:100F28000130AC07003003180130AD070130031061
:100F3800AD0CAC0CAB0CAA0CFF3E031D9B2FFF3075
:100F48002D05031DA82FA92F882FB52F0130A90221
:100F58000130A4000310AA0DAB0DAC0DAD0DA40B10
:100F6800AE2FAC1BB82FB92FBF2F023029020318A0
:100F7800BE2FBF2FAA2F2918C22FC32FCB2FFF3068
:100F8800AA05FF30AB057F30AC05FF30AD05031077
:100F9800A90C2908A400A501A601A701183003106F
:100FA800A40DA50DA60DA70DFF3E031DD32F2408E4
:100FB800AA042508AB042608AC042708AD042808B1
:100FC8000319E72FE82FED2FA31FEB2FEC2FED2FA1
:100FD800AD172D08A3002C08A2002B08A1002A0891
:100FE800A00008000A168A1118240A128A1183120E
:080FF800031320089300080018
:1010060032343B34093483120313A601A31F0C2880
:101016000D281428A209A309A20A0319A30AA601E6
:10102600A60AA11F172818281D28A009A109A00A89
:101036000319A10A2008210403192228232852286B
:10104600A501A50A312801300310A00DA10DFF3E10
:10105600031D27280130A4002408A507A11F342852
:101066003528262821082302031D3B2820082202B2
:10107600031C3E283F2845282008A2022108031CFD
:10108600A303A30201300310A10CA00CFF3E031D15
:1010960046280130A502031D512852283528260866
:1010A6000319562857285C28A209A309A20A03197E
:1010B600A30A2308A1002208A000080000300A168F
:1010C6008A11B5240A128A15343083120313A50037
:1010D600F130A400A40B6D28A50B6D2803300A1669
:1010E6008A117D240A128A150D3083120313A50076
:1010F600FB30A400A40B7D28A50B7D2803300A161F
:101106008A117D240A128A15063083120313A4005D
:10111600A40B8B28000003300A168A117D240A12BC
:101126008A1502300A168A117D240A128A1502309F
:101136000A168A117D240A128A1508300A168A119F
:101146007D240A128A1500300A168A117D240A1295
:101156008A150C300A168A117D240A128A15003067
:101166000A168A117D240A128A1506300A168A1171
:101176007D240A128A150800003083120313AC007E
:101186000030AB000030AA000030A900230822047A
:10119600210420040319D028D1281E29AD01AD0A47
:1011A600E1280130A8000310A00DA10DA20DA30D8A
:1011B600A80BD6280130A8002808AD07A31FE428ED
:1011C600E528D4280130A8000310A90DAA0DAB0DFF
:1011D600AC0DA80BE72823082702031DFC282208CC
:1011E6002602031DFC2821082502031DFC282008D1
:1011F6002402031CFF2800290F292008A402210825
:10120600031C210FA5022208031C220FA602230895
:10121600031C230FA702291401300310A30CA20CF0
:10122600A10CA00CFF3E031D10290130AD02031DC9
:101236001D291E29E5282C08A3002B08A2002A0830
:10124600A1002908A000080083120313A601A11F0C
:101256002D292E293529A009A109A00A0319A10AB9
:10126600A601A60AA31F382939294229A209A309DA
:10127600A20A0319A30A0130A4002408A606A7019E
:10128600A80120082104031949294A298129A50111
:10129600A50A582901300310A00DA10DFF3E031D1C
:1012A6004E290130A4002408A507A11F5B295C294B
:1012B6004D2901300310A70DA80DFF3E031D5D2922
:1012C60021082302031D692920082202031C6C2918
:1012D6006D2974292008A2022108031CA303A30276
:1012E600271401300310A10CA00CFF3E031D752925
:1012F6000130A502031D802981295C2926080319CE
:10130600852986298B29A709A809A70A0319A80AE6
:101316002808A1002708A000080083120313071855
:1013260095299629F7298C1D99299A29EA291412B3
:10133600141B9E299F29A329941FA229A329A82902
:101346001308F90014139413141683160313941A2E
:10135600AD29AE29C8291419B129B229C829831281
:1013660003131308F9008C11141683160313141CA7
:10137600BD29BE29B8298312031313098800A63094
:10138600F400F40BC4290000E729941ACB29CC29D0
:10139600E729141DCF29D029E7298312031313083F
:1013A600F90083160313141083120313060893001F
:1013B6001416A630F400F40BDE290000831603137E
:1013C6001418E629E729E129831203138C110C1F4F
:1013D600ED29EE29F7290A168A11F5230A128A152C
:1013E600700883120313860076088A00750E830040
:1013F600FE0E7E0E09000310831603132A0D2B0D15
:1014060083120313EF006F08031D0A2A0B2A162AFC
:10141600003083160313AB000030AA000030A90089
:101426000030A8008B2A831603132808AC0029086D
:10143600AD002A08AE002B08AF001F300310AF0C1A
:10144600AE0CAD0CAC0CFF3E031D212A2C088312FA
:101456000313EE0083160313AA17FF30A805FF3007
:10146600A905FF30AA050030AB0596308312031399
:10147600EF02EF1F3F2A402A5E2A6F08803A973E06
:101486000318462A472A482A0B2A013003108316D6
:101496000313AB0CAA0CA90CA80CFF3E031D492A8A
:1014A6000130AC002C0883120313EF07031D5C2ADE
:1014B6005D2A482A792A20306F02031C632A642A8F
:1014C600742A0B2A013083160313AC000310A80DEF
:1014D600A90DAA0DAB0DAC0B692A013083120313BB
:1014E600EF026F08031D782A792A652A6E08031908
:1014F6007D2A7E2A8B2A83160313A809A909AA091D
:10150600AB09A80A0319A90A0319AA0A0319AB0AFF
:10151600080083160313B600320883120313A000D3
:1015260083160313330883120313A100A201A30138
:1015360000300A128A113C270A128A1583120313F5
:101546002308E9002208E8002108E7002008E60051
:10155600831603133208340283120313A000831682
:1015660003133308031C330A350283120313A10045
:10157600A201A30100300A128A113C270A128A1519
:10158600831203132308B5002208B4002108B30010
:101596002008B200831603133008310283120313A6
:1015A600A000A101031CA103A201A11BA203220802
:1015B600A30001300A128A113C270A128A158312E7
:1015C60003132308B1002208B0002108AF00200849
:1015D600AE000A128A1552230A128A1583120313C1
:1015E6003108CF003008CE002F08CD002E08CC00E1
:1015F600831603133008360283120313A000A101D9
:10160600031CA103A201A11BA2032208A30001300F
:101616000A128A113C270A128A1583120313230819
:10162600CB002208CA002108C9002008C8000A12F7
:101636008A1131200A128A15831203134B08E5001A
:101646004A08E4004908E3004808E2000A128A1141
:1016560076230A128A158312031365088316031369
:10166600AB0083120313640883160313AA008312C4
:101676000313630883160313A90083120313620876
:1016860083160313A8000A128A15FE210A128A1568
:10169600831603132908B1002808B0000800831236
:1016A600031335088039BF003508B6003607C60073
:1016B600B41F5E2B5F2B602B461446080319642B60
:1016C600652B752B460A031D692B6A2B722B00307E
:1016D600B5000030B4000030B3000030B200B417DB
:1016E600B5017D2B0030B5000030B4000030B300EA
:1016F6000030B20031088039B6003608BF0631081E
:10170600B6003607C700B01F892B8A2B8B2B4714D0
:10171600470803198F2B902BA02B470A031D942BE8
:10172600952B9D2B0030B1000030B0000030AF008B
:101736000030AE00B017B101A82B0030B100003068
:10174600B0000030AF000030AE00310830042F0486
:101756002E04031DAF2BB02BC92B0030B500003073
:10176600B4000030B3000030B2008030B4047F30E3
:10177600B5043F08B6003608B5043508B10034088C
:10178600B0003308AF003208AE00242D4608031D12
:10179600CD2BCE2BD72B0030B1000030B00000305F
:1017A600AF000030AE00242D4608B600B70137085A
:1017B600B90047083602B800031CB90338087F3E53
:1017C600C00039080318013E003EC1003508BE00BE
:1017D6003408BD003308BC003208BB000030B50039
:1017E6000030B4000030B3000030B2000030C50055
:1017F6000030C4000030C3000030C200C7014D2CC9
:1018060047080319072C082C282C0130B6000310B2
:10181600BB0DBC0DBD0DBE0DB60B0A2C0130B600BE
:101826000310B20DB30DB40DB50DB60B132CC51FB9
:101836001D2C1E2C1F2C32140130B6000310C20DB5
:10184600C30DC40DC50DB60B212C31083E02031D78
:10185600362C30083D02031D362C2F083C02031D92
:10186600362C2E083B02031C392C3A2C492C4517E2
:101876002E08BB022F08031C2F0FBC023008031CC6
:10188600300FBD023108031C310FBE020130B60015
:101896003608C7071A304702031C522C532C032C58
:1018A6003E083D043C043B0403195A2C5B2C7A2C5D
:1018B60042147A2C0130B6000310B20DB30DB40DEC
:1018C600B50DB60B5F2CC51F692C6A2C6B2C321418
:1018D6000130B6000310C20DC30DC40DC50DB60B05
:1018E6006D2CFF30C0070318C10AFF30C107B41FB3
:1018F6007D2C7E2C5D2CC701C51F822C832C9F2C32
:10190600FF304205B600FF304305B700FF304405FF
:10191600B8007F304505B900390838043704360465
:101926000319962C972C9A2CC701C70A9F2C321C98
:101936009D2C9E2C9F2C972C47080319A32CA42C76
:10194600D52C0130B207003003180130B307003040
:1019560003180130B407003003180130B507351CF1
:10196600B52CB62CD52C3208B6003308B70034088F
:10197600B8003508B9000130BA00390DB90CB80CF9
:10198600B70CB60CBA0BC02C3908B5003808B40031
:101996003708B3003608B2000130C0070318C10A81
:1019A6000030C1074108803AFF0080307F02031DE6
:1019B600DE2CFF304002031CE12CE22CF02CFF3021
:1019C60083120313C0000030C1000030B5000030A0
:1019D600B4000030B3000030B20083120313410894
:1019E600803AFF0080307F02031DFB2C013040024D
:1019F6000318FE2CFF2C0C2D83120313C001C1010A
:101A06000030B5000030B4000030B3000030B20042
:101A1600BF01831203134008C600461C132D142D64
:101A2600162DB4171A2D7F30B6003608B4054608B1
:101A3600B6000310360CB5003F08B6003608B504EC
:101A4600C02B080083160313071483120313071C05
:101A56002D2D2E2DED2F0A168A1122250A128A15F2
:101A66000A128A1561200A128A150A168A113F245B
:101A76000A128A15831603134F080A168A117E2541
:101A86000A128A1583160313CF0050080A168A1104
:101A96007E250A128A1583160313D00051080A16EA
:101AA6008A117E250A128A1583160313D1000A1697
:101AB6008A11D3230A128A15D0300A168A110024F5
:101AC6000A128A1500300A168A1100240A128A158B
:101AD600831603134F080A168A1100240A128A1560
:101AE6008316031350080A168A1100240A128A154F
:101AF6008316031351080A168A1100240A128A153E
:101B06000A168A11DB230A128A1503308316031379
:101B1600B9000830B8007630B700B70B902DB80B77
:101B2600902DB90B902D00000A168A11E3230A1294
:101B36008A15503083120313A0000030A1000A1248
:101B46008A11F6270A128A158312031306088316CA
:101B56000313B700B801370883120313A0008316D6
:101B66000313380883120313A1000A128A11F627F9
:101B76000A128A150A168A11EC230A128A151A30D5
:101B860083160313B800F730B700B70BC82DB80B90
:101B9600C82DCD2D0A168A11E3230A128A15513053
:101BA60083120313A0000030A1000A128A11F6273F
:101BB6000A128A15003083120313A000A1000A1628
:101BC6008A11B0250A128A15831203132008831678
:101BD6000313CB000A168A11EC230A128A151A304F
:101BE60083160313B800F730B700B70BF82DB80B00
:101BF600F82DFD2D0A168A11D3230A128A15D03024
:101C06000A168A1100240A128A1500300A168A1149
:101C160000240A128A150A168A11CB230A128A157B
:101C2600D1300A168A1100240A128A150A168A1158
:101C360032240A128A1583160313CF000A168A1154
:101C46000B240A128A150A168A1132240A128A15D8
:101C560083160313D0000A168A110B240A128A155A
:101C66000A168A1132240A128A1583160313D10022
:101C76000A168A1125240A128A150A168A11DB23E6
:101C86000A128A15823083160313B800DD30B700B6
:101C9600B70B4B2EB80B4B2E831603134F080A16A1
:101CA6008A1163240A128A1583160313CF0050087B
:101CB6000A168A1163240A128A1583160313D000A2
:101CC60051080A168A1163240A128A158316031309
:101CD600D100B001FF30B1000030B200B300F430E3
:101CE600B4000130B5004B080A128A158C220A127C
:101CF6008A15831603133108CA003008C9006430F8
:101D060083120313A0000030A100831603134A08B0
:101D160083120313A30083160313490883120313C4
:101D2600A2000A168A11D7260A128A1583120313ED
:101D3600200883160313CD009C3083120313A000E2
:101D4600831603134D080A168A114C240A128A15A3
:101D5600831603134907CC0083120313A401A40AB4
:101D660001300A168A1168270A128A15263083124C
:101D76000313A5008030A6000A168A1191260A12BE
:101D86008A1583120313A401A40A02300A168A11C3
:101D960068270A128A150B3083120313AE000A3025
:101DA600A0000030A100831603135108B700B80144
:101DB600370883120313A20083160313380883120D
:101DC6000313A3000A128A1527210A128A15831201
:101DD60003132108B0002008AF000A30A00000302D
:101DE600A100831603135108B900BA0139088312FA
:101DF6000313A200831603133A0883120313A300E6
:101E06000A128A1506200A128A158312031321085C
:101E1600B2002008B1000A30A0000030A1008316ED
:101E260003135008BB00BC013B0883120313A20036
:101E3600831603133C0883120313A3000A128A15A0
:101E460027210A128A15831203132108B4002008D9
:101E5600B3000A30A0000030A10083160313500817
:101E6600BD00BE013D0883120313A20083160313AF
:101E76003E0883120313A3000A128A1506200A12CB
:101E86008A15831203132108B6002008B5000A300C
:101E9600A0000030A100831603134F08BF00C00145
:101EA6003F0883120313A20083160313400883120C
:101EB6000313A3000A128A1527210A128A15831210
:101EC60003132108B8002008B7000A30A00000302C
:101ED600A100831603134F08C100C20141088312F3
:101EE6000313A20083160313420883120313A300ED
:101EF6000A128A1506200A128A158312031321086C
:101F0600BA002008B900831603134D08C300C401A4
:101F1600430883120313BB0083160313440883127A
:101F26000313BC000A30A0000030A100831603137F
:101F36004C08C500C601450883120313A200831688
:101F46000313460883120313A3000A128A152721D6
:101F56000A128A15831203132108BE002008BD0049
:101F66000A30A0000030A100831603134C08C700F6
:101F7600C801470883120313A200831603134808F7
:101F860083120313A3000A128A1506200A128A1561
:101F9600831203132108C0002008BF00CE300A12A6
:101FA6008A1160260A128A1583120313A401A40A51
:101FB60002300A168A1168270A128A15CE30831251
:101FC6000313A5000030A6000A168A1191260A12EC
:101FD6008A15972D0718F02FF12FFD2F0A168A1153
:101FE60050250A128A1500300A168A11D5240A12BB
:101FF6008A15F62F0A128A110C28FF1B0A2883134A
:102006007F1883170008840A0319FF0A0800103096
:102016008A000408840A82070034013400340A3432
:10202600003464340034E834033410342734203464
:1020360025346434253464343A3425346434253400
:1020460064343A34253464342534643420342034FA
:10205600253464342E3425346434253464345634BB
:102066002034003420342034203448344F34523461
:1020760041342034203420342034203450344F343A
:04208600543400349A
:102796008316031391149118D12BD22BCE2B08003C
:1027A6008316031311141118D92BDA2BD62B080014
:1027B6008316031311151119E12BE22BDE2B0800EA
:1027C6000A168A1118240A168A118316031311147D
:1027D60008000A168A1118240A168A11831603138A
:1027E60011150800831203130C131E08F200F301DF
:1027F6007208F0007308F100080083120313A000AA
:102806008C11200893008C1D092C0A2C062C08001C
:10281600831203138C11831603139112111683125C
:102826008C1D162C172C122C080083160313141952
:102836001D2C1E2C182C11081F39031D232C242C8B
:10284600182C0800831203138C1183160313911698
:10285600111683128C1D302C312C2C2C080083125F
:1028660003138C1183160313911583128C1D3C2CB4
:102876003D2C382C1308080000300A168A117D24D6
:102886000A168A1101300A168A117D240A168A113F
:10289600080083120313A300A201231C532C542CFB
:1028A600582C2008A1002108A2070310A00D031030
:1028B600A30C2308031D602C612C502C2208080051
:1028C60083120313A6000F302605A4000A30A000C9
:1028D6002608A50004300310A50CFF3E031D6E2C30
:1028E60025080A168A114C240A168A118312031324
:1028F6002407080083120313A300081123080A16ED
:102906008A11B5240A168A118312031388150B300F
:1029160083120313A2006130A100A10B902CA20B1D
:10292600902C952C8312031388110800831203132D
:10293600A000200883160313930036308312031376
:10294600940080308316031394000130910087159C
:1029560007168B170B17831203138C118316031399
:102966008C15080083120313A000201CBB2CBC2C62
:10297600BE2C0816BF2C0812A01CC22CC32CC52CBA
:102986008816C62C8812201DC92CCA2CCC2C0817D8
:10299600CD2C0813A01DD02CD12CD32C8817D42CC9
:1029A6008813080083120313A1000E3021020318B6
:1029B600DD2CDE2CE82C2108A000A00DA00D1F08A0
:1029C6002006C33920069F00EA2CC3309F050C3031
:1029D60083120313A000A00BEE2C00008312031336
:1029E6009F149F18F72CF82CF42C0800831203135D
:1029F600A800A401A5012008A200A3012208A600A0
:102A06002308A700281C082D092D0F2D2608A4072A
:102A16000318A50A2708A50701300310A60DA70D60
:102A2600FF3E031D102D0310A80C2808031D1C2DA6
:102A36001D2D052D2508A1002408A00008008316D9
:102A46000317880183160313850183120313850177
:102A56008316031388018312031388018316031751
:102A660089010F3083160313860003300A168A1174
:102A76001D270A168A110B178B17003083120313B2
:102A8600B1000130B0008630AF00A030AE000A16AB
:102A96008A111B260A168A11080083160317890154
:102AA6008316031386018312031386018316031309
:102AB600880183120313880103300A168A111D2721
:102AC6000A168A110B178B17831203130C1383161E
:102AD60003130C1783120313A001A10101300A1678
:102AE6008A11B4270A168A1150300A168A119924B7
:102AF6000A168A11080083120313AE000A30A000DA
:102B06000030A1002E08A900AA012908A2002A085F
:102B1600A3000A128A1527210A168A1183120313A3
:102B26002008AB0004300310AB0DFF3E031D962DAD
:102B36000A30A0000030A1002E08AC00AD012C0820
:102B4600A2002D08A3000A128A1506200A168A1169
:102B56008312031320082B0708000A168A1118246B
:102B66000A168A118316031391150A168A11182458
:102B76000A168A11831203131308A200A30122085E
:102B8600A4002308A5000A168A1118240A168A1119
:102B96008312031320032104031DD22DD32DD72D19
:102BA600831603139112DA2D831603139116111649
:102BB600831203132508A1002408A000080083122D
:102BC6000313A40024080F39A2002408F039A30037
:102BD60008152308A10004300310A10CFF3E031DB5
:102BE600EF2D21080A168A11B5240A168A118312B6
:102BF60003138815193083120313A100A10B012EAC
:102C0600042E83120313881122080A168A11B5248A
:102C16000A168A11831203138815193083120313B7
:102C2600A100A10B142E172E83120313881108007E
:102C36002830831203139400831603139101831221
:102C460003132E08B2002F08B3003008B400310871
:102C5600B50002300310B20DB30DB40DB50DFF3E35
:102C6600031D2D2E3508A3003408A2003308A10049
:102C76003208A0000030A7007A30A6001230A50066
:102C86000030A4000A128A15BF200A168A11831280
:102C960003132008FF3E8316031393009401871540
:102CA60007160800831203132808290403195C2E4B
:102CB6005D2E8C2EAD01AD0A6B2E01300310A80DD2
:102CC600A90DFF3E031D612E0130AC002C08AD0797
:102CD600A91F6E2E6F2E602E29082B02031D752E3E
:102CE60028082A02031C782E792E7F2E2808AA028D
:102CF6002908031CAB03AB0201300310A90CA80C76
:102D0600FF3E031D802E0130AD02031D8B2E8C2E3F
:102D16006F2E2B08A9002A08A800080083120313A7
:102D2600AA01AB01BA2E2A082507A8002608A70083
:102D36000318A70AAA1FA02EA703831203132708A6
:102D4600A9002908FF00280884000A168A11002015
:102D56000A168A110A168A11E2250A168A11013004
:102D660083120313AA070318AB0A0030AB072A081D
:102D76002507A8002608A7000318A70AAA1FC42E1D
:102D8600A703831203132708A9002908FF002808B0
:102D960084000A168A1100200A168A11003A031DB9
:102DA600D52ED62E962E080083120313A501A60152
:102DB600200821040319E02EE12E182FA701A70AE7
:102DC600EF2E01300310A00DA10DFF3E031DE52ED1
:102DD6000130A4002408A707A11FF22EF32EE42E2B
:102DE60001300310A50DA60DFF3E031DF42E21088C
:102DF6002302031D002F20082202031C032F042F89
:102E06000B2F2008A2022108031CA303A3022514EA
:102E160001300310A10CA00CFF3E031D0C2F013046
:102E2600A702031D172F182FF32E2608A100250829
:102E3600A000080083120313A200831603130F14C5
:102E46004C2F831603130F088F3940388F00672FD6
:102E5600831603130F088F3950388F00672F831698
:102E660003130F088F3960388F00672F7030831671
:102E760003138F04672F831603130F088F39303817
:102E86008F00672F831603130F088F3960388F0062
:102E9600672F831203132208A000A1012108003A1C
:102EA6000319562F452F2008003A0319242F013AFB
:102EB60003192B2F033A0319322F013A0319392F1D
:102EC600073A03193E2F452F080083120313A60065
:102ED6002603031D6F2F702F8F2F24087F3EA90016
:102EE6002908A50004300310A50CFF3E031D762F0C
:102EF6002508A70029080F39A80027080A168A11ED
:102F06007D240A168A118312031328080A168A11C9
:102F16007D240A168A11B32F02302606031D942F2C
:102F2600952FB32F2408BF3EA9002908A500043019
:102F36000310A50CFF3E031D9B2F2508A70029089B
:102F46000F39A80027080A168A117D240A168A1145
:102F56008312031328080A168A117D240A168A1179
:102F6600080083120313A400C82F3F309F05DE2FED
:102F76001F083F3940389F00DE2F1F083F39803831
:102F86009F00DE2FC0309F04DE2F2408A200A3017D
:102F96002308003A0319D02FDE2F2208003A03191E
:102FA600B82F013A0319BB2F033A0319C02F013A70
:102FB6000319C52FDE2F200C83160313031C1F12C3
:102FC60003181F1683120313210C83160313031C05
:102FD6009F1203189F16C330831203139F0583168F
:102FE60003139F13831203131F140C30831203134E
:0A2FF600A200A20BFC2F000008004F
:08400000FF3FFF3FFF3FFF3FC0
:04400E00D420FF3F7C
:00000001FF
